{
  "_format": "hh-sol-artifact-1",
  "contractName": "DyamicSvgNft",
  "sourceName": "contracts/DynamicNft.sol",
  "abi": [
    {
      "inputs": [
        {
          "internalType": "address",
          "name": "priceFeedAddress",
          "type": "address"
        },
        {
          "internalType": "string",
          "name": "lowSvg",
          "type": "string"
        },
        {
          "internalType": "string",
          "name": "highSvg",
          "type": "string"
        }
      ],
      "stateMutability": "nonpayable",
      "type": "constructor"
    },
    {
      "anonymous": false,
      "inputs": [
        {
          "indexed": true,
          "internalType": "address",
          "name": "owner",
          "type": "address"
        },
        {
          "indexed": true,
          "internalType": "address",
          "name": "approved",
          "type": "address"
        },
        {
          "indexed": true,
          "internalType": "uint256",
          "name": "tokenId",
          "type": "uint256"
        }
      ],
      "name": "Approval",
      "type": "event"
    },
    {
      "anonymous": false,
      "inputs": [
        {
          "indexed": true,
          "internalType": "address",
          "name": "owner",
          "type": "address"
        },
        {
          "indexed": true,
          "internalType": "address",
          "name": "operator",
          "type": "address"
        },
        {
          "indexed": false,
          "internalType": "bool",
          "name": "approved",
          "type": "bool"
        }
      ],
      "name": "ApprovalForAll",
      "type": "event"
    },
    {
      "anonymous": false,
      "inputs": [
        {
          "indexed": true,
          "internalType": "uint256",
          "name": "tokenId",
          "type": "uint256"
        },
        {
          "indexed": false,
          "internalType": "int256",
          "name": "highValue",
          "type": "int256"
        }
      ],
      "name": "CreatedNFT",
      "type": "event"
    },
    {
      "anonymous": false,
      "inputs": [
        {
          "indexed": true,
          "internalType": "address",
          "name": "from",
          "type": "address"
        },
        {
          "indexed": true,
          "internalType": "address",
          "name": "to",
          "type": "address"
        },
        {
          "indexed": true,
          "internalType": "uint256",
          "name": "tokenId",
          "type": "uint256"
        }
      ],
      "name": "Transfer",
      "type": "event"
    },
    {
      "inputs": [
        {
          "internalType": "address",
          "name": "to",
          "type": "address"
        },
        {
          "internalType": "uint256",
          "name": "tokenId",
          "type": "uint256"
        }
      ],
      "name": "approve",
      "outputs": [],
      "stateMutability": "nonpayable",
      "type": "function"
    },
    {
      "inputs": [
        {
          "internalType": "address",
          "name": "owner",
          "type": "address"
        }
      ],
      "name": "balanceOf",
      "outputs": [
        {
          "internalType": "uint256",
          "name": "",
          "type": "uint256"
        }
      ],
      "stateMutability": "view",
      "type": "function"
    },
    {
      "inputs": [
        {
          "internalType": "uint256",
          "name": "tokenId",
          "type": "uint256"
        }
      ],
      "name": "getApproved",
      "outputs": [
        {
          "internalType": "address",
          "name": "",
          "type": "address"
        }
      ],
      "stateMutability": "view",
      "type": "function"
    },
    {
      "inputs": [
        {
          "internalType": "address",
          "name": "owner",
          "type": "address"
        },
        {
          "internalType": "address",
          "name": "operator",
          "type": "address"
        }
      ],
      "name": "isApprovedForAll",
      "outputs": [
        {
          "internalType": "bool",
          "name": "",
          "type": "bool"
        }
      ],
      "stateMutability": "view",
      "type": "function"
    },
    {
      "inputs": [
        {
          "internalType": "int256",
          "name": "highvalue",
          "type": "int256"
        }
      ],
      "name": "mintNft",
      "outputs": [],
      "stateMutability": "nonpayable",
      "type": "function"
    },
    {
      "inputs": [],
      "name": "name",
      "outputs": [
        {
          "internalType": "string",
          "name": "",
          "type": "string"
        }
      ],
      "stateMutability": "view",
      "type": "function"
    },
    {
      "inputs": [
        {
          "internalType": "uint256",
          "name": "tokenId",
          "type": "uint256"
        }
      ],
      "name": "ownerOf",
      "outputs": [
        {
          "internalType": "address",
          "name": "",
          "type": "address"
        }
      ],
      "stateMutability": "view",
      "type": "function"
    },
    {
      "inputs": [
        {
          "internalType": "uint256",
          "name": "",
          "type": "uint256"
        }
      ],
      "name": "s_tokenIdToHighValue",
      "outputs": [
        {
          "internalType": "int256",
          "name": "",
          "type": "int256"
        }
      ],
      "stateMutability": "view",
      "type": "function"
    },
    {
      "inputs": [
        {
          "internalType": "address",
          "name": "from",
          "type": "address"
        },
        {
          "internalType": "address",
          "name": "to",
          "type": "address"
        },
        {
          "internalType": "uint256",
          "name": "tokenId",
          "type": "uint256"
        }
      ],
      "name": "safeTransferFrom",
      "outputs": [],
      "stateMutability": "nonpayable",
      "type": "function"
    },
    {
      "inputs": [
        {
          "internalType": "address",
          "name": "from",
          "type": "address"
        },
        {
          "internalType": "address",
          "name": "to",
          "type": "address"
        },
        {
          "internalType": "uint256",
          "name": "tokenId",
          "type": "uint256"
        },
        {
          "internalType": "bytes",
          "name": "data",
          "type": "bytes"
        }
      ],
      "name": "safeTransferFrom",
      "outputs": [],
      "stateMutability": "nonpayable",
      "type": "function"
    },
    {
      "inputs": [
        {
          "internalType": "address",
          "name": "operator",
          "type": "address"
        },
        {
          "internalType": "bool",
          "name": "approved",
          "type": "bool"
        }
      ],
      "name": "setApprovalForAll",
      "outputs": [],
      "stateMutability": "nonpayable",
      "type": "function"
    },
    {
      "inputs": [
        {
          "internalType": "bytes4",
          "name": "interfaceId",
          "type": "bytes4"
        }
      ],
      "name": "supportsInterface",
      "outputs": [
        {
          "internalType": "bool",
          "name": "",
          "type": "bool"
        }
      ],
      "stateMutability": "view",
      "type": "function"
    },
    {
      "inputs": [
        {
          "internalType": "string",
          "name": "svg",
          "type": "string"
        }
      ],
      "name": "svgToImageURI",
      "outputs": [
        {
          "internalType": "string",
          "name": "",
          "type": "string"
        }
      ],
      "stateMutability": "pure",
      "type": "function"
    },
    {
      "inputs": [],
      "name": "symbol",
      "outputs": [
        {
          "internalType": "string",
          "name": "",
          "type": "string"
        }
      ],
      "stateMutability": "view",
      "type": "function"
    },
    {
      "inputs": [
        {
          "internalType": "uint256",
          "name": "tokenId",
          "type": "uint256"
        }
      ],
      "name": "tokenURI",
      "outputs": [
        {
          "internalType": "string",
          "name": "",
          "type": "string"
        }
      ],
      "stateMutability": "view",
      "type": "function"
    },
    {
      "inputs": [
        {
          "internalType": "address",
          "name": "from",
          "type": "address"
        },
        {
          "internalType": "address",
          "name": "to",
          "type": "address"
        },
        {
          "internalType": "uint256",
          "name": "tokenId",
          "type": "uint256"
        }
      ],
      "name": "transferFrom",
      "outputs": [],
      "stateMutability": "nonpayable",
      "type": "function"
    }
  ],
  "bytecode": "0x60a06040523480156200001157600080fd5b506040516200390738038062003907833981810160405281019062000037919062000570565b6040518060400160405280600f81526020017f44796e616d696320535647204e465400000000000000000000000000000000008152506040518060400160405280600381526020017f44534e00000000000000000000000000000000000000000000000000000000008152508160009081620000b4919062000855565b508060019081620000c6919062000855565b5050506000600681905550620000e2826200015260201b60201c565b60079081620000f2919062000855565b5062000104816200015260201b60201c565b6008908162000114919062000855565b508273ffffffffffffffffffffffffffffffffffffffff1660808173ffffffffffffffffffffffffffffffffffffffff168152505050505062000adb565b6060600062000188836040516020016200016d91906200097e565b604051602081830303815290604052620001eb60201b60201c565b90506040518060400160405280601a81526020017f646174613a696d6167652f7376672b786d6c3b6261736536342c00000000000081525081604051602001620001d492919062000997565b604051602081830303815290604052915050919050565b606060008251036200020f5760405180602001604052806000815250905062000373565b6000604051806060016040528060408152602001620038c76040913990506000600360028551620002419190620009ee565b6200024d919062000a58565b60046200025b919062000a90565b905060006020826200026e9190620009ee565b67ffffffffffffffff8111156200028a57620002896200040c565b5b6040519080825280601f01601f191660200182016040528015620002bd5781602001600182028036833780820191505090505b509050818152600183018586518101602084015b818310156200032e576003830192508251603f8160121c168501518253600182019150603f81600c1c168501518253600182019150603f8160061c168501518253600182019150603f8116850151825360018201915050620002d1565b6003895106600181146200034b57600281146200035c5762000367565b613d3d60f01b600283035262000367565b603d60f81b60018303525b50505050508093505050505b919050565b6000604051905090565b600080fd5b600080fd5b600073ffffffffffffffffffffffffffffffffffffffff82169050919050565b6000620003b9826200038c565b9050919050565b620003cb81620003ac565b8114620003d757600080fd5b50565b600081519050620003eb81620003c0565b92915050565b600080fd5b600080fd5b6000601f19601f8301169050919050565b7f4e487b7100000000000000000000000000000000000000000000000000000000600052604160045260246000fd5b6200044682620003fb565b810181811067ffffffffffffffff821117156200046857620004676200040c565b5b80604052505050565b60006200047d62000378565b90506200048b82826200043b565b919050565b600067ffffffffffffffff821115620004ae57620004ad6200040c565b5b620004b982620003fb565b9050602081019050919050565b60005b83811015620004e6578082015181840152602081019050620004c9565b60008484015250505050565b600062000509620005038462000490565b62000471565b905082815260208101848484011115620005285762000527620003f6565b5b62000535848285620004c6565b509392505050565b600082601f830112620005555762000554620003f1565b5b815162000567848260208601620004f2565b91505092915050565b6000806000606084860312156200058c576200058b62000382565b5b60006200059c86828701620003da565b935050602084015167ffffffffffffffff811115620005c057620005bf62000387565b5b620005ce868287016200053d565b925050604084015167ffffffffffffffff811115620005f257620005f162000387565b5b62000600868287016200053d565b9150509250925092565b600081519050919050565b7f4e487b7100000000000000000000000000000000000000000000000000000000600052602260045260246000fd5b600060028204905060018216806200065d57607f821691505b60208210810362000673576200067262000615565b5b50919050565b60008190508160005260206000209050919050565b60006020601f8301049050919050565b600082821b905092915050565b600060088302620006dd7fffffffffffffffffffffffffffffffffffffffffffffffffffffffffffffffff826200069e565b620006e986836200069e565b95508019841693508086168417925050509392505050565b6000819050919050565b6000819050919050565b600062000736620007306200072a8462000701565b6200070b565b62000701565b9050919050565b6000819050919050565b620007528362000715565b6200076a62000761826200073d565b848454620006ab565b825550505050565b600090565b6200078162000772565b6200078e81848462000747565b505050565b5b81811015620007b657620007aa60008262000777565b60018101905062000794565b5050565b601f8211156200080557620007cf8162000679565b620007da846200068e565b81016020851015620007ea578190505b62000802620007f9856200068e565b83018262000793565b50505b505050565b600082821c905092915050565b60006200082a600019846008026200080a565b1980831691505092915050565b600062000845838362000817565b9150826002028217905092915050565b62000860826200060a565b67ffffffffffffffff8111156200087c576200087b6200040c565b5b62000888825462000644565b62000895828285620007ba565b600060209050601f831160018114620008cd5760008415620008b8578287015190505b620008c4858262000837565b86555062000934565b601f198416620008dd8662000679565b60005b828110156200090757848901518255600182019150602085019450602081019050620008e0565b8683101562000927578489015162000923601f89168262000817565b8355505b6001600288020188555050505b505050505050565b600081905092915050565b600062000954826200060a565b6200096081856200093c565b935062000972818560208601620004c6565b80840191505092915050565b60006200098c828462000947565b915081905092915050565b6000620009a5828562000947565b9150620009b3828462000947565b91508190509392505050565b7f4e487b7100000000000000000000000000000000000000000000000000000000600052601160045260246000fd5b6000620009fb8262000701565b915062000a088362000701565b925082820190508082111562000a235762000a22620009bf565b5b92915050565b7f4e487b7100000000000000000000000000000000000000000000000000000000600052601260045260246000fd5b600062000a658262000701565b915062000a728362000701565b92508262000a855762000a8462000a29565b5b828204905092915050565b600062000a9d8262000701565b915062000aaa8362000701565b925082820262000aba8162000701565b9150828204841483151762000ad45762000ad3620009bf565b5b5092915050565b608051612dd062000af76000396000610ae30152612dd06000f3fe608060405234801561001057600080fd5b50600436106101005760003560e01c80636352211e11610097578063b88d4fde11610066578063b88d4fde146102bd578063c87b56dd146102d9578063e425aded14610309578063e985e9c51461033957610100565b80636352211e1461022357806370a082311461025357806395d89b4114610283578063a22cb465146102a157610100565b80631e930812116100d35780631e9308121461019f57806323b872dd146101bb57806330d871c6146101d757806342842e0e1461020757610100565b806301ffc9a71461010557806306fdde0314610135578063081812fc14610153578063095ea7b314610183575b600080fd5b61011f600480360381019061011a9190611abd565b610369565b60405161012c9190611b05565b60405180910390f35b61013d61044b565b60405161014a9190611bb0565b60405180910390f35b61016d60048036038101906101689190611c08565b6104dd565b60405161017a9190611c76565b60405180910390f35b61019d60048036038101906101989190611cbd565b610523565b005b6101b960048036038101906101b49190611d33565b61063a565b005b6101d560048036038101906101d09190611d60565b6106b2565b005b6101f160048036038101906101ec9190611ee8565b610712565b6040516101fe9190611bb0565b60405180910390f35b610221600480360381019061021c9190611d60565b61079f565b005b61023d60048036038101906102389190611c08565b6107bf565b60405161024a9190611c76565b60405180910390f35b61026d60048036038101906102689190611f31565b610845565b60405161027a9190611f6d565b60405180910390f35b61028b6108fc565b6040516102989190611bb0565b60405180910390f35b6102bb60048036038101906102b69190611fb4565b61098e565b005b6102d760048036038101906102d29190612095565b6109a4565b005b6102f360048036038101906102ee9190611c08565b610a06565b6040516103009190611bb0565b60405180910390f35b610323600480360381019061031e9190611c08565b610c80565b6040516103309190612127565b60405180910390f35b610353600480360381019061034e9190612142565b610c98565b6040516103609190611b05565b60405180910390f35b60007f80ac58cd000000000000000000000000000000000000000000000000000000007bffffffffffffffffffffffffffffffffffffffffffffffffffffffff1916827bffffffffffffffffffffffffffffffffffffffffffffffffffffffff1916148061043457507f5b5e139f000000000000000000000000000000000000000000000000000000007bffffffffffffffffffffffffffffffffffffffffffffffffffffffff1916827bffffffffffffffffffffffffffffffffffffffffffffffffffffffff1916145b80610444575061044382610d2c565b5b9050919050565b60606000805461045a906121b1565b80601f0160208091040260200160405190810160405280929190818152602001828054610486906121b1565b80156104d35780601f106104a8576101008083540402835291602001916104d3565b820191906000526020600020905b8154815290600101906020018083116104b657829003601f168201915b5050505050905090565b60006104e882610d96565b6004600083815260200190815260200160002060009054906101000a900473ffffffffffffffffffffffffffffffffffffffff169050919050565b600061052e826107bf565b90508073ffffffffffffffffffffffffffffffffffffffff168373ffffffffffffffffffffffffffffffffffffffff160361059e576040517f08c379a000000000000000000000000000000000000000000000000000000000815260040161059590612254565b60405180910390fd5b8073ffffffffffffffffffffffffffffffffffffffff166105bd610de1565b73ffffffffffffffffffffffffffffffffffffffff1614806105ec57506105eb816105e6610de1565b610c98565b5b61062b576040517f08c379a0000000000000000000000000000000000000000000000000000000008152600401610622906122e6565b60405180910390fd5b6106358383610de9565b505050565b806009600060065481526020019081526020016000208190555061066033600654610ea2565b600160065461066f9190612335565b6006819055506006547f882d3b5a729a8bb95cf6c0083c99b42ecd9637123d4425bd7b768877fd8af8b0826040516106a79190612127565b60405180910390a250565b6106c36106bd610de1565b82610ec0565b610702576040517f08c379a00000000000000000000000000000000000000000000000000000000081526004016106f9906123db565b60405180910390fd5b61070d838383610f55565b505050565b6060600061073e8360405160200161072a9190612437565b60405160208183030381529060405261124e565b90506040518060400160405280601a81526020017f646174613a696d6167652f7376672b786d6c3b6261736536342c0000000000008152508160405160200161078892919061244e565b604051602081830303815290604052915050919050565b6107ba838383604051806020016040528060008152506109a4565b505050565b6000806107cb836113c6565b9050600073ffffffffffffffffffffffffffffffffffffffff168173ffffffffffffffffffffffffffffffffffffffff160361083c576040517f08c379a0000000000000000000000000000000000000000000000000000000008152600401610833906124be565b60405180910390fd5b80915050919050565b60008073ffffffffffffffffffffffffffffffffffffffff168273ffffffffffffffffffffffffffffffffffffffff16036108b5576040517f08c379a00000000000000000000000000000000000000000000000000000000081526004016108ac90612550565b60405180910390fd5b600360008373ffffffffffffffffffffffffffffffffffffffff1673ffffffffffffffffffffffffffffffffffffffff168152602001908152602001600020549050919050565b60606001805461090b906121b1565b80601f0160208091040260200160405190810160405280929190818152602001828054610937906121b1565b80156109845780601f1061095957610100808354040283529160200191610984565b820191906000526020600020905b81548152906001019060200180831161096757829003601f168201915b5050505050905090565b6109a0610999610de1565b8383611403565b5050565b6109b56109af610de1565b83610ec0565b6109f4576040517f08c379a00000000000000000000000000000000000000000000000000000000081526004016109eb906123db565b60405180910390fd5b610a008484848461156f565b50505050565b6060610a11826115cb565b610a50576040517f08c379a0000000000000000000000000000000000000000000000000000000008152600401610a47906125bc565b60405180910390fd5b600060078054610a5f906121b1565b80601f0160208091040260200160405190810160405280929190818152602001828054610a8b906121b1565b8015610ad85780601f10610aad57610100808354040283529160200191610ad8565b820191906000526020600020905b815481529060010190602001808311610abb57829003601f168201915b5050505050905060007f000000000000000000000000000000000000000000000000000000000000000073ffffffffffffffffffffffffffffffffffffffff1663feaf968c6040518163ffffffff1660e01b815260040160a060405180830381865afa158015610b4c573d6000803e3d6000fd5b505050506040513d601f19601f82011682018060405250810190610b709190612648565b50505091505060096000858152602001908152602001600020548112610c1e5760088054610b9d906121b1565b80601f0160208091040260200160405190810160405280929190818152602001828054610bc9906121b1565b8015610c165780601f10610beb57610100808354040283529160200191610c16565b820191906000526020600020905b815481529060010190602001808311610bf957829003601f168201915b505050505091505b610c2661160c565b610c57610c3161044b565b84604051602001610c4392919061288b565b60405160208183030381529060405261124e565b604051602001610c6892919061244e565b60405160208183030381529060405292505050919050565b60096020528060005260406000206000915090505481565b6000600560008473ffffffffffffffffffffffffffffffffffffffff1673ffffffffffffffffffffffffffffffffffffffff16815260200190815260200160002060008373ffffffffffffffffffffffffffffffffffffffff1673ffffffffffffffffffffffffffffffffffffffff16815260200190815260200160002060009054906101000a900460ff16905092915050565b60007f01ffc9a7000000000000000000000000000000000000000000000000000000007bffffffffffffffffffffffffffffffffffffffffffffffffffffffff1916827bffffffffffffffffffffffffffffffffffffffffffffffffffffffff1916149050919050565b610d9f816115cb565b610dde576040517f08c379a0000000000000000000000000000000000000000000000000000000008152600401610dd5906124be565b60405180910390fd5b50565b600033905090565b816004600083815260200190815260200160002060006101000a81548173ffffffffffffffffffffffffffffffffffffffff021916908373ffffffffffffffffffffffffffffffffffffffff160217905550808273ffffffffffffffffffffffffffffffffffffffff16610e5c836107bf565b73ffffffffffffffffffffffffffffffffffffffff167f8c5be1e5ebec7d5bd14f71427d1e84f3dd0314c0f7b2291e5b200ac8c7c3b92560405160405180910390a45050565b610ebc828260405180602001604052806000815250611623565b5050565b600080610ecc836107bf565b90508073ffffffffffffffffffffffffffffffffffffffff168473ffffffffffffffffffffffffffffffffffffffff161480610f0e5750610f0d8185610c98565b5b80610f4c57508373ffffffffffffffffffffffffffffffffffffffff16610f34846104dd565b73ffffffffffffffffffffffffffffffffffffffff16145b91505092915050565b8273ffffffffffffffffffffffffffffffffffffffff16610f75826107bf565b73ffffffffffffffffffffffffffffffffffffffff1614610fcb576040517f08c379a0000000000000000000000000000000000000000000000000000000008152600401610fc29061294d565b60405180910390fd5b600073ffffffffffffffffffffffffffffffffffffffff168273ffffffffffffffffffffffffffffffffffffffff160361103a576040517f08c379a0000000000000000000000000000000000000000000000000000000008152600401611031906129df565b60405180910390fd5b611047838383600161167e565b8273ffffffffffffffffffffffffffffffffffffffff16611067826107bf565b73ffffffffffffffffffffffffffffffffffffffff16146110bd576040517f08c379a00000000000000000000000000000000000000000000000000000000081526004016110b49061294d565b60405180910390fd5b6004600082815260200190815260200160002060006101000a81549073ffffffffffffffffffffffffffffffffffffffff02191690556001600360008573ffffffffffffffffffffffffffffffffffffffff1673ffffffffffffffffffffffffffffffffffffffff168152602001908152602001600020600082825403925050819055506001600360008473ffffffffffffffffffffffffffffffffffffffff1673ffffffffffffffffffffffffffffffffffffffff16815260200190815260200160002060008282540192505081905550816002600083815260200190815260200160002060006101000a81548173ffffffffffffffffffffffffffffffffffffffff021916908373ffffffffffffffffffffffffffffffffffffffff160217905550808273ffffffffffffffffffffffffffffffffffffffff168473ffffffffffffffffffffffffffffffffffffffff167fddf252ad1be2c89b69c2b068fc378daa952ba7f163c4a11628f55a4df523b3ef60405160405180910390a46112498383836001611684565b505050565b60606000825103611270576040518060200160405280600081525090506113c1565b6000604051806060016040528060408152602001612d5b604091399050600060036002855161129f9190612335565b6112a99190612a2e565b60046112b59190612a5f565b905060006020826112c69190612335565b67ffffffffffffffff8111156112df576112de611dbd565b5b6040519080825280601f01601f1916602001820160405280156113115781602001600182028036833780820191505090505b509050818152600183018586518101602084015b81831015611380576003830192508251603f8160121c168501518253600182019150603f81600c1c168501518253600182019150603f8160061c168501518253600182019150603f8116850151825360018201915050611325565b60038951066001811461139a57600281146113aa576113b5565b613d3d60f01b60028303526113b5565b603d60f81b60018303525b50505050508093505050505b919050565b60006002600083815260200190815260200160002060009054906101000a900473ffffffffffffffffffffffffffffffffffffffff169050919050565b8173ffffffffffffffffffffffffffffffffffffffff168373ffffffffffffffffffffffffffffffffffffffff1603611471576040517f08c379a000000000000000000000000000000000000000000000000000000000815260040161146890612aed565b60405180910390fd5b80600560008573ffffffffffffffffffffffffffffffffffffffff1673ffffffffffffffffffffffffffffffffffffffff16815260200190815260200160002060008473ffffffffffffffffffffffffffffffffffffffff1673ffffffffffffffffffffffffffffffffffffffff16815260200190815260200160002060006101000a81548160ff0219169083151502179055508173ffffffffffffffffffffffffffffffffffffffff168373ffffffffffffffffffffffffffffffffffffffff167f17307eab39ab6107e8899845ad3d59bd9653f200f220920489ca2b5937696c31836040516115629190611b05565b60405180910390a3505050565b61157a848484610f55565b6115868484848461168a565b6115c5576040517f08c379a00000000000000000000000000000000000000000000000000000000081526004016115bc90612b7f565b60405180910390fd5b50505050565b60008073ffffffffffffffffffffffffffffffffffffffff166115ed836113c6565b73ffffffffffffffffffffffffffffffffffffffff1614159050919050565b606060405180602001604052806000815250905090565b61162d8383611811565b61163a600084848461168a565b611679576040517f08c379a000000000000000000000000000000000000000000000000000000000815260040161167090612b7f565b60405180910390fd5b505050565b50505050565b50505050565b60006116ab8473ffffffffffffffffffffffffffffffffffffffff16611a2e565b15611804578373ffffffffffffffffffffffffffffffffffffffff1663150b7a026116d4610de1565b8786866040518563ffffffff1660e01b81526004016116f69493929190612bf4565b6020604051808303816000875af192505050801561173257506040513d601f19601f8201168201806040525081019061172f9190612c55565b60015b6117b4573d8060008114611762576040519150601f19603f3d011682016040523d82523d6000602084013e611767565b606091505b5060008151036117ac576040517f08c379a00000000000000000000000000000000000000000000000000000000081526004016117a390612b7f565b60405180910390fd5b805181602001fd5b63150b7a0260e01b7bffffffffffffffffffffffffffffffffffffffffffffffffffffffff1916817bffffffffffffffffffffffffffffffffffffffffffffffffffffffff191614915050611809565b600190505b949350505050565b600073ffffffffffffffffffffffffffffffffffffffff168273ffffffffffffffffffffffffffffffffffffffff1603611880576040517f08c379a000000000000000000000000000000000000000000000000000000000815260040161187790612cce565b60405180910390fd5b611889816115cb565b156118c9576040517f08c379a00000000000000000000000000000000000000000000000000000000081526004016118c090612d3a565b60405180910390fd5b6118d760008383600161167e565b6118e0816115cb565b15611920576040517f08c379a000000000000000000000000000000000000000000000000000000000815260040161191790612d3a565b60405180910390fd5b6001600360008473ffffffffffffffffffffffffffffffffffffffff1673ffffffffffffffffffffffffffffffffffffffff16815260200190815260200160002060008282540192505081905550816002600083815260200190815260200160002060006101000a81548173ffffffffffffffffffffffffffffffffffffffff021916908373ffffffffffffffffffffffffffffffffffffffff160217905550808273ffffffffffffffffffffffffffffffffffffffff16600073ffffffffffffffffffffffffffffffffffffffff167fddf252ad1be2c89b69c2b068fc378daa952ba7f163c4a11628f55a4df523b3ef60405160405180910390a4611a2a600083836001611684565b5050565b6000808273ffffffffffffffffffffffffffffffffffffffff163b119050919050565b6000604051905090565b600080fd5b600080fd5b60007fffffffff0000000000000000000000000000000000000000000000000000000082169050919050565b611a9a81611a65565b8114611aa557600080fd5b50565b600081359050611ab781611a91565b92915050565b600060208284031215611ad357611ad2611a5b565b5b6000611ae184828501611aa8565b91505092915050565b60008115159050919050565b611aff81611aea565b82525050565b6000602082019050611b1a6000830184611af6565b92915050565b600081519050919050565b600082825260208201905092915050565b60005b83811015611b5a578082015181840152602081019050611b3f565b60008484015250505050565b6000601f19601f8301169050919050565b6000611b8282611b20565b611b8c8185611b2b565b9350611b9c818560208601611b3c565b611ba581611b66565b840191505092915050565b60006020820190508181036000830152611bca8184611b77565b905092915050565b6000819050919050565b611be581611bd2565b8114611bf057600080fd5b50565b600081359050611c0281611bdc565b92915050565b600060208284031215611c1e57611c1d611a5b565b5b6000611c2c84828501611bf3565b91505092915050565b600073ffffffffffffffffffffffffffffffffffffffff82169050919050565b6000611c6082611c35565b9050919050565b611c7081611c55565b82525050565b6000602082019050611c8b6000830184611c67565b92915050565b611c9a81611c55565b8114611ca557600080fd5b50565b600081359050611cb781611c91565b92915050565b60008060408385031215611cd457611cd3611a5b565b5b6000611ce285828601611ca8565b9250506020611cf385828601611bf3565b9150509250929050565b6000819050919050565b611d1081611cfd565b8114611d1b57600080fd5b50565b600081359050611d2d81611d07565b92915050565b600060208284031215611d4957611d48611a5b565b5b6000611d5784828501611d1e565b91505092915050565b600080600060608486031215611d7957611d78611a5b565b5b6000611d8786828701611ca8565b9350506020611d9886828701611ca8565b9250506040611da986828701611bf3565b9150509250925092565b600080fd5b600080fd5b7f4e487b7100000000000000000000000000000000000000000000000000000000600052604160045260246000fd5b611df582611b66565b810181811067ffffffffffffffff82111715611e1457611e13611dbd565b5b80604052505050565b6000611e27611a51565b9050611e338282611dec565b919050565b600067ffffffffffffffff821115611e5357611e52611dbd565b5b611e5c82611b66565b9050602081019050919050565b82818337600083830152505050565b6000611e8b611e8684611e38565b611e1d565b905082815260208101848484011115611ea757611ea6611db8565b5b611eb2848285611e69565b509392505050565b600082601f830112611ecf57611ece611db3565b5b8135611edf848260208601611e78565b91505092915050565b600060208284031215611efe57611efd611a5b565b5b600082013567ffffffffffffffff811115611f1c57611f1b611a60565b5b611f2884828501611eba565b91505092915050565b600060208284031215611f4757611f46611a5b565b5b6000611f5584828501611ca8565b91505092915050565b611f6781611bd2565b82525050565b6000602082019050611f826000830184611f5e565b92915050565b611f9181611aea565b8114611f9c57600080fd5b50565b600081359050611fae81611f88565b92915050565b60008060408385031215611fcb57611fca611a5b565b5b6000611fd985828601611ca8565b9250506020611fea85828601611f9f565b9150509250929050565b600067ffffffffffffffff82111561200f5761200e611dbd565b5b61201882611b66565b9050602081019050919050565b600061203861203384611ff4565b611e1d565b90508281526020810184848401111561205457612053611db8565b5b61205f848285611e69565b509392505050565b600082601f83011261207c5761207b611db3565b5b813561208c848260208601612025565b91505092915050565b600080600080608085870312156120af576120ae611a5b565b5b60006120bd87828801611ca8565b94505060206120ce87828801611ca8565b93505060406120df87828801611bf3565b925050606085013567ffffffffffffffff811115612100576120ff611a60565b5b61210c87828801612067565b91505092959194509250565b61212181611cfd565b82525050565b600060208201905061213c6000830184612118565b92915050565b6000806040838503121561215957612158611a5b565b5b600061216785828601611ca8565b925050602061217885828601611ca8565b9150509250929050565b7f4e487b7100000000000000000000000000000000000000000000000000000000600052602260045260246000fd5b600060028204905060018216806121c957607f821691505b6020821081036121dc576121db612182565b5b50919050565b7f4552433732313a20617070726f76616c20746f2063757272656e74206f776e6560008201527f7200000000000000000000000000000000000000000000000000000000000000602082015250565b600061223e602183611b2b565b9150612249826121e2565b604082019050919050565b6000602082019050818103600083015261226d81612231565b9050919050565b7f4552433732313a20617070726f76652063616c6c6572206973206e6f7420746f60008201527f6b656e206f776e6572206f7220617070726f76656420666f7220616c6c000000602082015250565b60006122d0603d83611b2b565b91506122db82612274565b604082019050919050565b600060208201905081810360008301526122ff816122c3565b9050919050565b7f4e487b7100000000000000000000000000000000000000000000000000000000600052601160045260246000fd5b600061234082611bd2565b915061234b83611bd2565b925082820190508082111561236357612362612306565b5b92915050565b7f4552433732313a2063616c6c6572206973206e6f7420746f6b656e206f776e6560008201527f72206f7220617070726f76656400000000000000000000000000000000000000602082015250565b60006123c5602d83611b2b565b91506123d082612369565b604082019050919050565b600060208201905081810360008301526123f4816123b8565b9050919050565b600081905092915050565b600061241182611b20565b61241b81856123fb565b935061242b818560208601611b3c565b80840191505092915050565b60006124438284612406565b915081905092915050565b600061245a8285612406565b91506124668284612406565b91508190509392505050565b7f4552433732313a20696e76616c696420746f6b656e2049440000000000000000600082015250565b60006124a8601883611b2b565b91506124b382612472565b602082019050919050565b600060208201905081810360008301526124d78161249b565b9050919050565b7f4552433732313a2061646472657373207a65726f206973206e6f74206120766160008201527f6c6964206f776e65720000000000000000000000000000000000000000000000602082015250565b600061253a602983611b2b565b9150612545826124de565b604082019050919050565b600060208201905081810360008301526125698161252d565b9050919050565b7f555249205175657920666f72206e6f6e65786974656e636520746f6b656e0000600082015250565b60006125a6601e83611b2b565b91506125b182612570565b602082019050919050565b600060208201905081810360008301526125d581612599565b9050919050565b600069ffffffffffffffffffff82169050919050565b6125fb816125dc565b811461260657600080fd5b50565b600081519050612618816125f2565b92915050565b60008151905061262d81611d07565b92915050565b60008151905061264281611bdc565b92915050565b600080600080600060a0868803121561266457612663611a5b565b5b600061267288828901612609565b95505060206126838882890161261e565b945050604061269488828901612633565b93505060606126a588828901612633565b92505060806126b688828901612609565b9150509295509295909350565b7f7b226e616d65223a220000000000000000000000000000000000000000000000600082015250565b60006126f96009836123fb565b9150612704826126c3565b600982019050919050565b7f222c20226465736372697074696f6e223a22416e204e4654207468617420636860008201527f616e676573206261736564206f6e2074686520436861696e6c696e6b2046656560208201527f64222c2000000000000000000000000000000000000000000000000000000000604082015250565b60006127916044836123fb565b915061279c8261270f565b604482019050919050565b7f2261747472696275746573223a205b7b2274726169745f74797065223a20226360008201527f6f6f6c6e657373222c202276616c7565223a203130307d5d2c2022696d61676560208201527f223a220000000000000000000000000000000000000000000000000000000000604082015250565b60006128296043836123fb565b9150612834826127a7565b604382019050919050565b7f227d000000000000000000000000000000000000000000000000000000000000600082015250565b60006128756002836123fb565b91506128808261283f565b600282019050919050565b6000612896826126ec565b91506128a28285612406565b91506128ad82612784565b91506128b88261281c565b91506128c48284612406565b91506128cf82612868565b91508190509392505050565b7f4552433732313a207472616e736665722066726f6d20696e636f72726563742060008201527f6f776e6572000000000000000000000000000000000000000000000000000000602082015250565b6000612937602583611b2b565b9150612942826128db565b604082019050919050565b600060208201905081810360008301526129668161292a565b9050919050565b7f4552433732313a207472616e7366657220746f20746865207a65726f2061646460008201527f7265737300000000000000000000000000000000000000000000000000000000602082015250565b60006129c9602483611b2b565b91506129d48261296d565b604082019050919050565b600060208201905081810360008301526129f8816129bc565b9050919050565b7f4e487b7100000000000000000000000000000000000000000000000000000000600052601260045260246000fd5b6000612a3982611bd2565b9150612a4483611bd2565b925082612a5457612a536129ff565b5b828204905092915050565b6000612a6a82611bd2565b9150612a7583611bd2565b9250828202612a8381611bd2565b91508282048414831517612a9a57612a99612306565b5b5092915050565b7f4552433732313a20617070726f766520746f2063616c6c657200000000000000600082015250565b6000612ad7601983611b2b565b9150612ae282612aa1565b602082019050919050565b60006020820190508181036000830152612b0681612aca565b9050919050565b7f4552433732313a207472616e7366657220746f206e6f6e20455243373231526560008201527f63656976657220696d706c656d656e7465720000000000000000000000000000602082015250565b6000612b69603283611b2b565b9150612b7482612b0d565b604082019050919050565b60006020820190508181036000830152612b9881612b5c565b9050919050565b600081519050919050565b600082825260208201905092915050565b6000612bc682612b9f565b612bd08185612baa565b9350612be0818560208601611b3c565b612be981611b66565b840191505092915050565b6000608082019050612c096000830187611c67565b612c166020830186611c67565b612c236040830185611f5e565b8181036060830152612c358184612bbb565b905095945050505050565b600081519050612c4f81611a91565b92915050565b600060208284031215612c6b57612c6a611a5b565b5b6000612c7984828501612c40565b91505092915050565b7f4552433732313a206d696e7420746f20746865207a65726f2061646472657373600082015250565b6000612cb8602083611b2b565b9150612cc382612c82565b602082019050919050565b60006020820190508181036000830152612ce781612cab565b9050919050565b7f4552433732313a20746f6b656e20616c7265616479206d696e74656400000000600082015250565b6000612d24601c83611b2b565b9150612d2f82612cee565b602082019050919050565b60006020820190508181036000830152612d5381612d17565b905091905056fe4142434445464748494a4b4c4d4e4f505152535455565758595a6162636465666768696a6b6c6d6e6f707172737475767778797a303132333435363738392b2fa264697066735822122070b5e0c375b34806398e0108021af7adef0fb8a9437916adef67091e59b4a6fa64736f6c634300081300334142434445464748494a4b4c4d4e4f505152535455565758595a6162636465666768696a6b6c6d6e6f707172737475767778797a303132333435363738392b2f",
  "linkReferences": {},
  "deployedLinkReferences": {}
}