{
  "address": "0xB1BD9DC8c69881581A01F478F80E3940dE91A36B",
  "abi": [
    {
      "inputs": [
        {
          "internalType": "address",
          "name": "vrfCoordinatorV2",
          "type": "address"
        },
        {
          "internalType": "uint64",
          "name": "suscriptionId",
          "type": "uint64"
        },
        {
          "internalType": "bytes32",
          "name": "gasLane",
          "type": "bytes32"
        },
        {
          "internalType": "uint32",
          "name": "callbackGasLimit",
          "type": "uint32"
        },
        {
          "internalType": "string[3]",
          "name": "dogTokenUris",
          "type": "string[3]"
        },
        {
          "internalType": "uint256",
          "name": "mintFee",
          "type": "uint256"
        }
      ],
      "stateMutability": "nonpayable",
      "type": "constructor"
    },
    {
      "inputs": [
        {
          "internalType": "address",
          "name": "have",
          "type": "address"
        },
        {
          "internalType": "address",
          "name": "want",
          "type": "address"
        }
      ],
      "name": "OnlyCoordinatorCanFulfill",
      "type": "error"
    },
    {
      "inputs": [],
      "name": "RandomIpfsNft_NeedMoreEth",
      "type": "error"
    },
    {
      "inputs": [],
      "name": "RandomIpfsNft_RangrOutOfBounds",
      "type": "error"
    },
    {
      "inputs": [],
      "name": "RandomIpfsNft_TransFerFail",
      "type": "error"
    },
    {
      "anonymous": false,
      "inputs": [
        {
          "indexed": true,
          "internalType": "address",
          "name": "owner",
          "type": "address"
        },
        {
          "indexed": true,
          "internalType": "address",
          "name": "approved",
          "type": "address"
        },
        {
          "indexed": true,
          "internalType": "uint256",
          "name": "tokenId",
          "type": "uint256"
        }
      ],
      "name": "Approval",
      "type": "event"
    },
    {
      "anonymous": false,
      "inputs": [
        {
          "indexed": true,
          "internalType": "address",
          "name": "owner",
          "type": "address"
        },
        {
          "indexed": true,
          "internalType": "address",
          "name": "operator",
          "type": "address"
        },
        {
          "indexed": false,
          "internalType": "bool",
          "name": "approved",
          "type": "bool"
        }
      ],
      "name": "ApprovalForAll",
      "type": "event"
    },
    {
      "anonymous": false,
      "inputs": [
        {
          "indexed": false,
          "internalType": "uint256",
          "name": "_fromTokenId",
          "type": "uint256"
        },
        {
          "indexed": false,
          "internalType": "uint256",
          "name": "_toTokenId",
          "type": "uint256"
        }
      ],
      "name": "BatchMetadataUpdate",
      "type": "event"
    },
    {
      "anonymous": false,
      "inputs": [
        {
          "indexed": false,
          "internalType": "uint256",
          "name": "_tokenId",
          "type": "uint256"
        }
      ],
      "name": "MetadataUpdate",
      "type": "event"
    },
    {
      "anonymous": false,
      "inputs": [
        {
          "indexed": false,
          "internalType": "enum RandomIpfsNft.Breed",
          "name": "dogBrees",
          "type": "uint8"
        },
        {
          "indexed": false,
          "internalType": "address",
          "name": "minter",
          "type": "address"
        }
      ],
      "name": "NftMinted",
      "type": "event"
    },
    {
      "anonymous": false,
      "inputs": [
        {
          "indexed": true,
          "internalType": "uint256",
          "name": "requestId",
          "type": "uint256"
        },
        {
          "indexed": false,
          "internalType": "address",
          "name": "requester",
          "type": "address"
        }
      ],
      "name": "NftRequested",
      "type": "event"
    },
    {
      "anonymous": false,
      "inputs": [
        {
          "indexed": true,
          "internalType": "address",
          "name": "previousOwner",
          "type": "address"
        },
        {
          "indexed": true,
          "internalType": "address",
          "name": "newOwner",
          "type": "address"
        }
      ],
      "name": "OwnershipTransferred",
      "type": "event"
    },
    {
      "anonymous": false,
      "inputs": [
        {
          "indexed": true,
          "internalType": "address",
          "name": "from",
          "type": "address"
        },
        {
          "indexed": true,
          "internalType": "address",
          "name": "to",
          "type": "address"
        },
        {
          "indexed": true,
          "internalType": "uint256",
          "name": "tokenId",
          "type": "uint256"
        }
      ],
      "name": "Transfer",
      "type": "event"
    },
    {
      "inputs": [
        {
          "internalType": "address",
          "name": "to",
          "type": "address"
        },
        {
          "internalType": "uint256",
          "name": "tokenId",
          "type": "uint256"
        }
      ],
      "name": "approve",
      "outputs": [],
      "stateMutability": "nonpayable",
      "type": "function"
    },
    {
      "inputs": [
        {
          "internalType": "address",
          "name": "owner",
          "type": "address"
        }
      ],
      "name": "balanceOf",
      "outputs": [
        {
          "internalType": "uint256",
          "name": "",
          "type": "uint256"
        }
      ],
      "stateMutability": "view",
      "type": "function"
    },
    {
      "inputs": [
        {
          "internalType": "uint256",
          "name": "tokenId",
          "type": "uint256"
        }
      ],
      "name": "getApproved",
      "outputs": [
        {
          "internalType": "address",
          "name": "",
          "type": "address"
        }
      ],
      "stateMutability": "view",
      "type": "function"
    },
    {
      "inputs": [
        {
          "internalType": "uint256",
          "name": "moddedRng",
          "type": "uint256"
        }
      ],
      "name": "getBreedFromModdedRng",
      "outputs": [
        {
          "internalType": "enum RandomIpfsNft.Breed",
          "name": "",
          "type": "uint8"
        }
      ],
      "stateMutability": "pure",
      "type": "function"
    },
    {
      "inputs": [],
      "name": "getChanceArray",
      "outputs": [
        {
          "internalType": "uint256[3]",
          "name": "",
          "type": "uint256[3]"
        }
      ],
      "stateMutability": "pure",
      "type": "function"
    },
    {
      "inputs": [],
      "name": "getMintFee",
      "outputs": [
        {
          "internalType": "uint256",
          "name": "",
          "type": "uint256"
        }
      ],
      "stateMutability": "view",
      "type": "function"
    },
    {
      "inputs": [],
      "name": "getTokenCounter",
      "outputs": [
        {
          "internalType": "uint256",
          "name": "",
          "type": "uint256"
        }
      ],
      "stateMutability": "view",
      "type": "function"
    },
    {
      "inputs": [
        {
          "internalType": "uint256",
          "name": "indexId",
          "type": "uint256"
        }
      ],
      "name": "getTokenURi",
      "outputs": [
        {
          "internalType": "string",
          "name": "",
          "type": "string"
        }
      ],
      "stateMutability": "view",
      "type": "function"
    },
    {
      "inputs": [
        {
          "internalType": "address",
          "name": "owner",
          "type": "address"
        },
        {
          "internalType": "address",
          "name": "operator",
          "type": "address"
        }
      ],
      "name": "isApprovedForAll",
      "outputs": [
        {
          "internalType": "bool",
          "name": "",
          "type": "bool"
        }
      ],
      "stateMutability": "view",
      "type": "function"
    },
    {
      "inputs": [],
      "name": "name",
      "outputs": [
        {
          "internalType": "string",
          "name": "",
          "type": "string"
        }
      ],
      "stateMutability": "view",
      "type": "function"
    },
    {
      "inputs": [],
      "name": "owner",
      "outputs": [
        {
          "internalType": "address",
          "name": "",
          "type": "address"
        }
      ],
      "stateMutability": "view",
      "type": "function"
    },
    {
      "inputs": [
        {
          "internalType": "uint256",
          "name": "tokenId",
          "type": "uint256"
        }
      ],
      "name": "ownerOf",
      "outputs": [
        {
          "internalType": "address",
          "name": "",
          "type": "address"
        }
      ],
      "stateMutability": "view",
      "type": "function"
    },
    {
      "inputs": [
        {
          "internalType": "uint256",
          "name": "requestId",
          "type": "uint256"
        },
        {
          "internalType": "uint256[]",
          "name": "randomWords",
          "type": "uint256[]"
        }
      ],
      "name": "rawFulfillRandomWords",
      "outputs": [],
      "stateMutability": "nonpayable",
      "type": "function"
    },
    {
      "inputs": [],
      "name": "renounceOwnership",
      "outputs": [],
      "stateMutability": "nonpayable",
      "type": "function"
    },
    {
      "inputs": [],
      "name": "requestNft",
      "outputs": [
        {
          "internalType": "uint256",
          "name": "requestId",
          "type": "uint256"
        }
      ],
      "stateMutability": "payable",
      "type": "function"
    },
    {
      "inputs": [],
      "name": "s_tokenCounter",
      "outputs": [
        {
          "internalType": "uint256",
          "name": "",
          "type": "uint256"
        }
      ],
      "stateMutability": "view",
      "type": "function"
    },
    {
      "inputs": [
        {
          "internalType": "address",
          "name": "from",
          "type": "address"
        },
        {
          "internalType": "address",
          "name": "to",
          "type": "address"
        },
        {
          "internalType": "uint256",
          "name": "tokenId",
          "type": "uint256"
        }
      ],
      "name": "safeTransferFrom",
      "outputs": [],
      "stateMutability": "nonpayable",
      "type": "function"
    },
    {
      "inputs": [
        {
          "internalType": "address",
          "name": "from",
          "type": "address"
        },
        {
          "internalType": "address",
          "name": "to",
          "type": "address"
        },
        {
          "internalType": "uint256",
          "name": "tokenId",
          "type": "uint256"
        },
        {
          "internalType": "bytes",
          "name": "data",
          "type": "bytes"
        }
      ],
      "name": "safeTransferFrom",
      "outputs": [],
      "stateMutability": "nonpayable",
      "type": "function"
    },
    {
      "inputs": [
        {
          "internalType": "address",
          "name": "operator",
          "type": "address"
        },
        {
          "internalType": "bool",
          "name": "approved",
          "type": "bool"
        }
      ],
      "name": "setApprovalForAll",
      "outputs": [],
      "stateMutability": "nonpayable",
      "type": "function"
    },
    {
      "inputs": [
        {
          "internalType": "bytes4",
          "name": "interfaceId",
          "type": "bytes4"
        }
      ],
      "name": "supportsInterface",
      "outputs": [
        {
          "internalType": "bool",
          "name": "",
          "type": "bool"
        }
      ],
      "stateMutability": "view",
      "type": "function"
    },
    {
      "inputs": [],
      "name": "symbol",
      "outputs": [
        {
          "internalType": "string",
          "name": "",
          "type": "string"
        }
      ],
      "stateMutability": "view",
      "type": "function"
    },
    {
      "inputs": [
        {
          "internalType": "uint256",
          "name": "tokenId",
          "type": "uint256"
        }
      ],
      "name": "tokenURI",
      "outputs": [
        {
          "internalType": "string",
          "name": "",
          "type": "string"
        }
      ],
      "stateMutability": "view",
      "type": "function"
    },
    {
      "inputs": [
        {
          "internalType": "address",
          "name": "from",
          "type": "address"
        },
        {
          "internalType": "address",
          "name": "to",
          "type": "address"
        },
        {
          "internalType": "uint256",
          "name": "tokenId",
          "type": "uint256"
        }
      ],
      "name": "transferFrom",
      "outputs": [],
      "stateMutability": "nonpayable",
      "type": "function"
    },
    {
      "inputs": [
        {
          "internalType": "address",
          "name": "newOwner",
          "type": "address"
        }
      ],
      "name": "transferOwnership",
      "outputs": [],
      "stateMutability": "nonpayable",
      "type": "function"
    },
    {
      "inputs": [],
      "name": "withdraw",
      "outputs": [],
      "stateMutability": "nonpayable",
      "type": "function"
    }
  ],
  "transactionHash": "0x7dc6a21cd3ef68e33b58906b22039838dc693034a854e999a3042430c6135f8d",
  "args": [
    "0x8103B0A8A00be2DDC778e6e7eaa21791Cd364625",
    "1002",
    "0x474e34a077df58807dbe9c96d3c009b23b3c6d0cce433e59bbf5b34f823bc56c",
    "100000000",
    [
      "ipfs://QmTvL9ZejjXfAWnNwkeyC81xsgZpJj1VN3quq5mQBGgNXR",
      "ipfs://QmTeZbkzWNh2RZvDwFM9VnAF8qKD1nnmYCxsyUtAiJhJmh",
      "ipfs://QmdRSGptdHW2vt8CF4XmFr1yS4mFmDovmErAGW4kQ5Z6WG"
    ],
    "50000"
  ],
  "numDeployments": 1,
  "solcInputHash": "f60ac37ec6a735d2af6b926fe07317d3",
  "bytecode": "0x6101406040523480156200001257600080fd5b50604051620047403803806200474083398181016040528101906200003891906200071a565b6040518060400160405280600f81526020017f52616e646f6d2049504653204e465400000000000000000000000000000000008152506040518060400160405280600381526020017f52494e0000000000000000000000000000000000000000000000000000000000815250878073ffffffffffffffffffffffffffffffffffffffff1660808173ffffffffffffffffffffffffffffffffffffffff1681525050508160009081620000eb919062000a16565b508060019081620000fd919062000a16565b50505062000120620001146200026e60201b60201c565b6200027660201b60201c565b8573ffffffffffffffffffffffffffffffffffffffff1660a08173ffffffffffffffffffffffffffffffffffffffff16815250508467ffffffffffffffff1660c08167ffffffffffffffff16815250508360e081815250508263ffffffff166101008163ffffffff1681525050600a600380602002604051908101604052809291906000905b8282101562000253578382018054620001bf906200080f565b80601f0160208091040260200160405190810160405280929190818152602001828054620001ed906200080f565b80156200023e5780601f1062000212576101008083540402835291602001916200023e565b820191906000526020600020905b8154815290600101906020018083116200022057829003601f168201915b505050505081526020019060010190620001a6565b50505050915080610120818152505050505050505062000afd565b600033905090565b6000600760009054906101000a900473ffffffffffffffffffffffffffffffffffffffff16905081600760006101000a81548173ffffffffffffffffffffffffffffffffffffffff021916908373ffffffffffffffffffffffffffffffffffffffff1602179055508173ffffffffffffffffffffffffffffffffffffffff168173ffffffffffffffffffffffffffffffffffffffff167f8be0079c531659141344cd1fd0a4f28419497f9722a3daafe3b4186f6b6457e060405160405180910390a35050565b6000604051905090565b600080fd5b600080fd5b600073ffffffffffffffffffffffffffffffffffffffff82169050919050565b60006200037d8262000350565b9050919050565b6200038f8162000370565b81146200039b57600080fd5b50565b600081519050620003af8162000384565b92915050565b600067ffffffffffffffff82169050919050565b620003d481620003b5565b8114620003e057600080fd5b50565b600081519050620003f481620003c9565b92915050565b6000819050919050565b6200040f81620003fa565b81146200041b57600080fd5b50565b6000815190506200042f8162000404565b92915050565b600063ffffffff82169050919050565b620004508162000435565b81146200045c57600080fd5b50565b600081519050620004708162000445565b92915050565b600080fd5b6000601f19601f8301169050919050565b7f4e487b7100000000000000000000000000000000000000000000000000000000600052604160045260246000fd5b620004c6826200047b565b810181811067ffffffffffffffff82111715620004e857620004e76200048c565b5b80604052505050565b6000620004fd6200033c565b90506200050b8282620004bb565b919050565b600067ffffffffffffffff8211156200052e576200052d6200048c565b5b602082029050919050565b600080fd5b600080fd5b600067ffffffffffffffff8211156200056157620005606200048c565b5b6200056c826200047b565b9050602081019050919050565b60005b83811015620005995780820151818401526020810190506200057c565b60008484015250505050565b6000620005bc620005b68462000543565b620004f1565b905082815260208101848484011115620005db57620005da6200053e565b5b620005e884828562000579565b509392505050565b600082601f83011262000608576200060762000476565b5b81516200061a848260208601620005a5565b91505092915050565b60006200063a620006348462000510565b620004f1565b9050806020840283018581111562000657576200065662000539565b5b835b81811015620006a557805167ffffffffffffffff81111562000680576200067f62000476565b5b8086016200068f8982620005f0565b8552602085019450505060208101905062000659565b5050509392505050565b600082601f830112620006c757620006c662000476565b5b6003620006d684828562000623565b91505092915050565b6000819050919050565b620006f481620006df565b81146200070057600080fd5b50565b6000815190506200071481620006e9565b92915050565b60008060008060008060c087890312156200073a576200073962000346565b5b60006200074a89828a016200039e565b96505060206200075d89828a01620003e3565b95505060406200077089828a016200041e565b94505060606200078389828a016200045f565b935050608087015167ffffffffffffffff811115620007a757620007a66200034b565b5b620007b589828a01620006af565b92505060a0620007c889828a0162000703565b9150509295509295509295565b600081519050919050565b7f4e487b7100000000000000000000000000000000000000000000000000000000600052602260045260246000fd5b600060028204905060018216806200082857607f821691505b6020821081036200083e576200083d620007e0565b5b50919050565b60008190508160005260206000209050919050565b60006020601f8301049050919050565b600082821b905092915050565b600060088302620008a87fffffffffffffffffffffffffffffffffffffffffffffffffffffffffffffffff8262000869565b620008b4868362000869565b95508019841693508086168417925050509392505050565b6000819050919050565b6000620008f7620008f1620008eb84620006df565b620008cc565b620006df565b9050919050565b6000819050919050565b6200091383620008d6565b6200092b6200092282620008fe565b84845462000876565b825550505050565b600090565b6200094262000933565b6200094f81848462000908565b505050565b5b8181101562000977576200096b60008262000938565b60018101905062000955565b5050565b601f821115620009c657620009908162000844565b6200099b8462000859565b81016020851015620009ab578190505b620009c3620009ba8562000859565b83018262000954565b50505b505050565b600082821c905092915050565b6000620009eb60001984600802620009cb565b1980831691505092915050565b600062000a068383620009d8565b9150826002028217905092915050565b62000a2182620007d5565b67ffffffffffffffff81111562000a3d5762000a3c6200048c565b5b62000a4982546200080f565b62000a568282856200097b565b600060209050601f83116001811462000a8e576000841562000a79578287015190505b62000a858582620009f8565b86555062000af5565b601f19841662000a9e8662000844565b60005b8281101562000ac85784890151825560018201915060208501945060208101905062000aa1565b8683101562000ae8578489015162000ae4601f891682620009d8565b8355505b6001600288020188555050505b505050505050565b60805160a05160c05160e0516101005161012051613be562000b5b60003960008181610c660152610e4201526000610f1c01526000610ed801526000610ef901526000610e9c01526000818161084301526108970152613be56000f3fe6080604052600436106101665760003560e01c80636e02007d116100d1578063a22cb4651161008a578063b88d4fde11610064578063b88d4fde1461051f578063c87b56dd14610548578063e985e9c514610585578063f2fde38b146105c257610166565b8063a22cb4651461049b578063a51cccf3146104c4578063aa1524911461050157610166565b80636e02007d1461039b57806370a08231146103c6578063715018a6146104035780637a5caab31461041a5780638da5cb5b1461044557806395d89b411461047057610166565b806323b872dd1161012357806323b872dd1461028d5780633ccfd60b146102b657806342842e0e146102cd5780634ba33985146102f65780635dacf5f4146103335780636352211e1461035e57610166565b806301ffc9a71461016b57806306fdde03146101a8578063081812fc146101d3578063095ea7b3146102105780630b21a83b146102395780631fe543e314610264575b600080fd5b34801561017757600080fd5b50610192600480360381019061018d91906125a7565b6105eb565b60405161019f91906125ef565b60405180910390f35b3480156101b457600080fd5b506101bd61064c565b6040516101ca919061269a565b60405180910390f35b3480156101df57600080fd5b506101fa60048036038101906101f591906126f2565b6106de565b6040516102079190612760565b60405180910390f35b34801561021c57600080fd5b50610237600480360381019061023291906127a7565b610724565b005b34801561024557600080fd5b5061024e61083b565b60405161025b91906127f6565b60405180910390f35b34801561027057600080fd5b5061028b60048036038101906102869190612959565b610841565b005b34801561029957600080fd5b506102b460048036038101906102af91906129b5565b610901565b005b3480156102c257600080fd5b506102cb610961565b005b3480156102d957600080fd5b506102f460048036038101906102ef91906129b5565b610a15565b005b34801561030257600080fd5b5061031d600480360381019061031891906126f2565b610a35565b60405161032a919061269a565b60405180910390f35b34801561033f57600080fd5b50610348610adc565b6040516103559190612ab3565b60405180910390f35b34801561036a57600080fd5b50610385600480360381019061038091906126f2565b610b07565b6040516103929190612760565b60405180910390f35b3480156103a757600080fd5b506103b0610b8d565b6040516103bd91906127f6565b60405180910390f35b3480156103d257600080fd5b506103ed60048036038101906103e89190612ace565b610b97565b6040516103fa91906127f6565b60405180910390f35b34801561040f57600080fd5b50610418610c4e565b005b34801561042657600080fd5b5061042f610c62565b60405161043c91906127f6565b60405180910390f35b34801561045157600080fd5b5061045a610c8a565b6040516104679190612760565b60405180910390f35b34801561047c57600080fd5b50610485610cb4565b604051610492919061269a565b60405180910390f35b3480156104a757600080fd5b506104c260048036038101906104bd9190612b27565b610d46565b005b3480156104d057600080fd5b506104eb60048036038101906104e691906126f2565b610d5c565b6040516104f89190612bde565b60405180910390f35b610509610e3e565b60405161051691906127f6565b60405180910390f35b34801561052b57600080fd5b5061054660048036038101906105419190612cae565b610ff7565b005b34801561055457600080fd5b5061056f600480360381019061056a91906126f2565b611059565b60405161057c919061269a565b60405180910390f35b34801561059157600080fd5b506105ac60048036038101906105a79190612d31565b61116b565b6040516105b991906125ef565b60405180910390f35b3480156105ce57600080fd5b506105e960048036038101906105e49190612ace565b6111ff565b005b6000634906490660e01b7bffffffffffffffffffffffffffffffffffffffffffffffffffffffff1916827bffffffffffffffffffffffffffffffffffffffffffffffffffffffff19161480610645575061064482611282565b5b9050919050565b60606000805461065b90612da0565b80601f016020809104026020016040519081016040528092919081815260200182805461068790612da0565b80156106d45780601f106106a9576101008083540402835291602001916106d4565b820191906000526020600020905b8154815290600101906020018083116106b757829003601f168201915b5050505050905090565b60006106e982611364565b6004600083815260200190815260200160002060009054906101000a900473ffffffffffffffffffffffffffffffffffffffff169050919050565b600061072f82610b07565b90508073ffffffffffffffffffffffffffffffffffffffff168373ffffffffffffffffffffffffffffffffffffffff160361079f576040517f08c379a000000000000000000000000000000000000000000000000000000000815260040161079690612e43565b60405180910390fd5b8073ffffffffffffffffffffffffffffffffffffffff166107be6113af565b73ffffffffffffffffffffffffffffffffffffffff1614806107ed57506107ec816107e76113af565b61116b565b5b61082c576040517f08c379a000000000000000000000000000000000000000000000000000000000815260040161082390612ed5565b60405180910390fd5b61083683836113b7565b505050565b60095481565b7f000000000000000000000000000000000000000000000000000000000000000073ffffffffffffffffffffffffffffffffffffffff163373ffffffffffffffffffffffffffffffffffffffff16146108f357337f00000000000000000000000000000000000000000000000000000000000000006040517f1cf993f40000000000000000000000000000000000000000000000000000000081526004016108ea929190612ef5565b60405180910390fd5b6108fd8282611470565b5050565b61091261090c6113af565b82611607565b610951576040517f08c379a000000000000000000000000000000000000000000000000000000000815260040161094890612f90565b60405180910390fd5b61095c83838361169c565b505050565b610969611995565b600047905060003373ffffffffffffffffffffffffffffffffffffffff168260405161099490612fe1565b60006040518083038185875af1925050503d80600081146109d1576040519150601f19603f3d011682016040523d82523d6000602084013e6109d6565b606091505b5050905080610a11576040517fe3f7e76100000000000000000000000000000000000000000000000000000000815260040160405180910390fd5b5050565b610a3083838360405180602001604052806000815250610ff7565b505050565b6060600a8260038110610a4b57610a4a612ff6565b5b018054610a5790612da0565b80601f0160208091040260200160405190810160405280929190818152602001828054610a8390612da0565b8015610ad05780601f10610aa557610100808354040283529160200191610ad0565b820191906000526020600020905b815481529060010190602001808311610ab357829003601f168201915b50505050509050919050565b610ae4612519565b6040518060600160405280600a8152602001601e81526020016064815250905090565b600080610b1383611a13565b9050600073ffffffffffffffffffffffffffffffffffffffff168173ffffffffffffffffffffffffffffffffffffffff1603610b84576040517f08c379a0000000000000000000000000000000000000000000000000000000008152600401610b7b90613071565b60405180910390fd5b80915050919050565b6000600954905090565b60008073ffffffffffffffffffffffffffffffffffffffff168273ffffffffffffffffffffffffffffffffffffffff1603610c07576040517f08c379a0000000000000000000000000000000000000000000000000000000008152600401610bfe90613103565b60405180910390fd5b600360008373ffffffffffffffffffffffffffffffffffffffff1673ffffffffffffffffffffffffffffffffffffffff168152602001908152602001600020549050919050565b610c56611995565b610c606000611a50565b565b60007f0000000000000000000000000000000000000000000000000000000000000000905090565b6000600760009054906101000a900473ffffffffffffffffffffffffffffffffffffffff16905090565b606060018054610cc390612da0565b80601f0160208091040260200160405190810160405280929190818152602001828054610cef90612da0565b8015610d3c5780601f10610d1157610100808354040283529160200191610d3c565b820191906000526020600020905b815481529060010190602001808311610d1f57829003601f168201915b5050505050905090565b610d58610d516113af565b8383611b16565b5050565b600080600090506000610d6d610adc565b905060005b6003811015610e0657828510158015610dac5750818160038110610d9957610d98612ff6565b5b602002015183610da99190613152565b85105b15610dce57806002811115610dc457610dc3612b67565b5b9350505050610e39565b818160038110610de157610de0612ff6565b5b602002015183610df19190613152565b92508080610dfe90613186565b915050610d72565b506040517fa6f1840600000000000000000000000000000000000000000000000000000000815260040160405180910390fd5b919050565b60007f0000000000000000000000000000000000000000000000000000000000000000341015610e9a576040517f85f4965300000000000000000000000000000000000000000000000000000000815260040160405180910390fd5b7f000000000000000000000000000000000000000000000000000000000000000073ffffffffffffffffffffffffffffffffffffffff16635d3b1d307f00000000000000000000000000000000000000000000000000000000000000007f000000000000000000000000000000000000000000000000000000000000000060037f000000000000000000000000000000000000000000000000000000000000000060016040518663ffffffff1660e01b8152600401610f5d959493929190613246565b6020604051808303816000875af1158015610f7c573d6000803e3d6000fd5b505050506040513d601f19601f82011682018060405250810190610fa091906132ae565b9050336008600083815260200190815260200160002060006101000a81548173ffffffffffffffffffffffffffffffffffffffff021916908373ffffffffffffffffffffffffffffffffffffffff16021790555090565b6110086110026113af565b83611607565b611047576040517f08c379a000000000000000000000000000000000000000000000000000000000815260040161103e90612f90565b60405180910390fd5b61105384848484611c82565b50505050565b606061106482611364565b600060066000848152602001908152602001600020805461108490612da0565b80601f01602080910402602001604051908101604052809291908181526020018280546110b090612da0565b80156110fd5780601f106110d2576101008083540402835291602001916110fd565b820191906000526020600020905b8154815290600101906020018083116110e057829003601f168201915b50505050509050600061110e611cde565b90506000815103611123578192505050611166565b600082511115611158578082604051602001611140929190613317565b60405160208183030381529060405292505050611166565b61116184611cf5565b925050505b919050565b6000600560008473ffffffffffffffffffffffffffffffffffffffff1673ffffffffffffffffffffffffffffffffffffffff16815260200190815260200160002060008373ffffffffffffffffffffffffffffffffffffffff1673ffffffffffffffffffffffffffffffffffffffff16815260200190815260200160002060009054906101000a900460ff16905092915050565b611207611995565b600073ffffffffffffffffffffffffffffffffffffffff168173ffffffffffffffffffffffffffffffffffffffff1603611276576040517f08c379a000000000000000000000000000000000000000000000000000000000815260040161126d906133ad565b60405180910390fd5b61127f81611a50565b50565b60007f80ac58cd000000000000000000000000000000000000000000000000000000007bffffffffffffffffffffffffffffffffffffffffffffffffffffffff1916827bffffffffffffffffffffffffffffffffffffffffffffffffffffffff1916148061134d57507f5b5e139f000000000000000000000000000000000000000000000000000000007bffffffffffffffffffffffffffffffffffffffffffffffffffffffff1916827bffffffffffffffffffffffffffffffffffffffffffffffffffffffff1916145b8061135d575061135c82611d5d565b5b9050919050565b61136d81611dc7565b6113ac576040517f08c379a00000000000000000000000000000000000000000000000000000000081526004016113a390613071565b60405180910390fd5b50565b600033905090565b816004600083815260200190815260200160002060006101000a81548173ffffffffffffffffffffffffffffffffffffffff021916908373ffffffffffffffffffffffffffffffffffffffff160217905550808273ffffffffffffffffffffffffffffffffffffffff1661142a83610b07565b73ffffffffffffffffffffffffffffffffffffffff167f8c5be1e5ebec7d5bd14f71427d1e84f3dd0314c0f7b2291e5b200ac8c7c3b92560405160405180910390a45050565b60006008600084815260200190815260200160002060009054906101000a900473ffffffffffffffffffffffffffffffffffffffff1690506000600954905060006064846000815181106114c7576114c6612ff6565b5b60200260200101516114d991906133fc565b905060006114e682610d5c565b9050600954600960008282546114fc9190613152565b9250508190555061150d8484611e08565b6115c683600a83600281111561152657611525612b67565b5b6003811061153757611536612ff6565b5b01805461154390612da0565b80601f016020809104026020016040519081016040528092919081815260200182805461156f90612da0565b80156115bc5780601f10611591576101008083540402835291602001916115bc565b820191906000526020600020905b81548152906001019060200180831161159f57829003601f168201915b5050505050611e26565b7f8a269f26b688e110e9cbd887d163dab35cae678fa353a0292de532c0cac1ecdc81856040516115f792919061342d565b60405180910390a1505050505050565b60008061161383610b07565b90508073ffffffffffffffffffffffffffffffffffffffff168473ffffffffffffffffffffffffffffffffffffffff1614806116555750611654818561116b565b5b8061169357508373ffffffffffffffffffffffffffffffffffffffff1661167b846106de565b73ffffffffffffffffffffffffffffffffffffffff16145b91505092915050565b8273ffffffffffffffffffffffffffffffffffffffff166116bc82610b07565b73ffffffffffffffffffffffffffffffffffffffff1614611712576040517f08c379a0000000000000000000000000000000000000000000000000000000008152600401611709906134c8565b60405180910390fd5b600073ffffffffffffffffffffffffffffffffffffffff168273ffffffffffffffffffffffffffffffffffffffff1603611781576040517f08c379a00000000000000000000000000000000000000000000000000000000081526004016117789061355a565b60405180910390fd5b61178e8383836001611eca565b8273ffffffffffffffffffffffffffffffffffffffff166117ae82610b07565b73ffffffffffffffffffffffffffffffffffffffff1614611804576040517f08c379a00000000000000000000000000000000000000000000000000000000081526004016117fb906134c8565b60405180910390fd5b6004600082815260200190815260200160002060006101000a81549073ffffffffffffffffffffffffffffffffffffffff02191690556001600360008573ffffffffffffffffffffffffffffffffffffffff1673ffffffffffffffffffffffffffffffffffffffff168152602001908152602001600020600082825403925050819055506001600360008473ffffffffffffffffffffffffffffffffffffffff1673ffffffffffffffffffffffffffffffffffffffff16815260200190815260200160002060008282540192505081905550816002600083815260200190815260200160002060006101000a81548173ffffffffffffffffffffffffffffffffffffffff021916908373ffffffffffffffffffffffffffffffffffffffff160217905550808273ffffffffffffffffffffffffffffffffffffffff168473ffffffffffffffffffffffffffffffffffffffff167fddf252ad1be2c89b69c2b068fc378daa952ba7f163c4a11628f55a4df523b3ef60405160405180910390a46119908383836001611ed0565b505050565b61199d6113af565b73ffffffffffffffffffffffffffffffffffffffff166119bb610c8a565b73ffffffffffffffffffffffffffffffffffffffff1614611a11576040517f08c379a0000000000000000000000000000000000000000000000000000000008152600401611a08906135c6565b60405180910390fd5b565b60006002600083815260200190815260200160002060009054906101000a900473ffffffffffffffffffffffffffffffffffffffff169050919050565b6000600760009054906101000a900473ffffffffffffffffffffffffffffffffffffffff16905081600760006101000a81548173ffffffffffffffffffffffffffffffffffffffff021916908373ffffffffffffffffffffffffffffffffffffffff1602179055508173ffffffffffffffffffffffffffffffffffffffff168173ffffffffffffffffffffffffffffffffffffffff167f8be0079c531659141344cd1fd0a4f28419497f9722a3daafe3b4186f6b6457e060405160405180910390a35050565b8173ffffffffffffffffffffffffffffffffffffffff168373ffffffffffffffffffffffffffffffffffffffff1603611b84576040517f08c379a0000000000000000000000000000000000000000000000000000000008152600401611b7b90613632565b60405180910390fd5b80600560008573ffffffffffffffffffffffffffffffffffffffff1673ffffffffffffffffffffffffffffffffffffffff16815260200190815260200160002060008473ffffffffffffffffffffffffffffffffffffffff1673ffffffffffffffffffffffffffffffffffffffff16815260200190815260200160002060006101000a81548160ff0219169083151502179055508173ffffffffffffffffffffffffffffffffffffffff168373ffffffffffffffffffffffffffffffffffffffff167f17307eab39ab6107e8899845ad3d59bd9653f200f220920489ca2b5937696c3183604051611c7591906125ef565b60405180910390a3505050565b611c8d84848461169c565b611c9984848484611ed6565b611cd8576040517f08c379a0000000000000000000000000000000000000000000000000000000008152600401611ccf906136c4565b60405180910390fd5b50505050565b606060405180602001604052806000815250905090565b6060611d0082611364565b6000611d0a611cde565b90506000815111611d2a5760405180602001604052806000815250611d55565b80611d348461205d565b604051602001611d45929190613317565b6040516020818303038152906040525b915050919050565b60007f01ffc9a7000000000000000000000000000000000000000000000000000000007bffffffffffffffffffffffffffffffffffffffffffffffffffffffff1916827bffffffffffffffffffffffffffffffffffffffffffffffffffffffff1916149050919050565b60008073ffffffffffffffffffffffffffffffffffffffff16611de983611a13565b73ffffffffffffffffffffffffffffffffffffffff1614159050919050565b611e2282826040518060200160405280600081525061212b565b5050565b611e2f82611dc7565b611e6e576040517f08c379a0000000000000000000000000000000000000000000000000000000008152600401611e6590613756565b60405180910390fd5b80600660008481526020019081526020016000209081611e8e9190613922565b507ff8e1a15aba9398e019f0b49df1a4fde98ee17ae345cb5f6b5e2c27f5033e8ce782604051611ebe91906127f6565b60405180910390a15050565b50505050565b50505050565b6000611ef78473ffffffffffffffffffffffffffffffffffffffff16612186565b15612050578373ffffffffffffffffffffffffffffffffffffffff1663150b7a02611f206113af565b8786866040518563ffffffff1660e01b8152600401611f429493929190613a49565b6020604051808303816000875af1925050508015611f7e57506040513d601f19601f82011682018060405250810190611f7b9190613aaa565b60015b612000573d8060008114611fae576040519150601f19603f3d011682016040523d82523d6000602084013e611fb3565b606091505b506000815103611ff8576040517f08c379a0000000000000000000000000000000000000000000000000000000008152600401611fef906136c4565b60405180910390fd5b805181602001fd5b63150b7a0260e01b7bffffffffffffffffffffffffffffffffffffffffffffffffffffffff1916817bffffffffffffffffffffffffffffffffffffffffffffffffffffffff191614915050612055565b600190505b949350505050565b60606000600161206c846121a9565b01905060008167ffffffffffffffff81111561208b5761208a612816565b5b6040519080825280601f01601f1916602001820160405280156120bd5781602001600182028036833780820191505090505b509050600082602001820190505b600115612120578080600190039150507f3031323334353637383961626364656600000000000000000000000000000000600a86061a8153600a8581612114576121136133cd565b5b049450600085036120cb575b819350505050919050565b61213583836122fc565b6121426000848484611ed6565b612181576040517f08c379a0000000000000000000000000000000000000000000000000000000008152600401612178906136c4565b60405180910390fd5b505050565b6000808273ffffffffffffffffffffffffffffffffffffffff163b119050919050565b600080600090507a184f03e93ff9f4daa797ed6e38ed64bf6a1f0100000000000000008310612207577a184f03e93ff9f4daa797ed6e38ed64bf6a1f01000000000000000083816121fd576121fc6133cd565b5b0492506040810190505b6d04ee2d6d415b85acef81000000008310612244576d04ee2d6d415b85acef8100000000838161223a576122396133cd565b5b0492506020810190505b662386f26fc10000831061227357662386f26fc100008381612269576122686133cd565b5b0492506010810190505b6305f5e100831061229c576305f5e1008381612292576122916133cd565b5b0492506008810190505b61271083106122c15761271083816122b7576122b66133cd565b5b0492506004810190505b606483106122e457606483816122da576122d96133cd565b5b0492506002810190505b600a83106122f3576001810190505b80915050919050565b600073ffffffffffffffffffffffffffffffffffffffff168273ffffffffffffffffffffffffffffffffffffffff160361236b576040517f08c379a000000000000000000000000000000000000000000000000000000000815260040161236290613b23565b60405180910390fd5b61237481611dc7565b156123b4576040517f08c379a00000000000000000000000000000000000000000000000000000000081526004016123ab90613b8f565b60405180910390fd5b6123c2600083836001611eca565b6123cb81611dc7565b1561240b576040517f08c379a000000000000000000000000000000000000000000000000000000000815260040161240290613b8f565b60405180910390fd5b6001600360008473ffffffffffffffffffffffffffffffffffffffff1673ffffffffffffffffffffffffffffffffffffffff16815260200190815260200160002060008282540192505081905550816002600083815260200190815260200160002060006101000a81548173ffffffffffffffffffffffffffffffffffffffff021916908373ffffffffffffffffffffffffffffffffffffffff160217905550808273ffffffffffffffffffffffffffffffffffffffff16600073ffffffffffffffffffffffffffffffffffffffff167fddf252ad1be2c89b69c2b068fc378daa952ba7f163c4a11628f55a4df523b3ef60405160405180910390a4612515600083836001611ed0565b5050565b6040518060600160405280600390602082028036833780820191505090505090565b6000604051905090565b600080fd5b600080fd5b60007fffffffff0000000000000000000000000000000000000000000000000000000082169050919050565b6125848161254f565b811461258f57600080fd5b50565b6000813590506125a18161257b565b92915050565b6000602082840312156125bd576125bc612545565b5b60006125cb84828501612592565b91505092915050565b60008115159050919050565b6125e9816125d4565b82525050565b600060208201905061260460008301846125e0565b92915050565b600081519050919050565b600082825260208201905092915050565b60005b83811015612644578082015181840152602081019050612629565b60008484015250505050565b6000601f19601f8301169050919050565b600061266c8261260a565b6126768185612615565b9350612686818560208601612626565b61268f81612650565b840191505092915050565b600060208201905081810360008301526126b48184612661565b905092915050565b6000819050919050565b6126cf816126bc565b81146126da57600080fd5b50565b6000813590506126ec816126c6565b92915050565b60006020828403121561270857612707612545565b5b6000612716848285016126dd565b91505092915050565b600073ffffffffffffffffffffffffffffffffffffffff82169050919050565b600061274a8261271f565b9050919050565b61275a8161273f565b82525050565b60006020820190506127756000830184612751565b92915050565b6127848161273f565b811461278f57600080fd5b50565b6000813590506127a18161277b565b92915050565b600080604083850312156127be576127bd612545565b5b60006127cc85828601612792565b92505060206127dd858286016126dd565b9150509250929050565b6127f0816126bc565b82525050565b600060208201905061280b60008301846127e7565b92915050565b600080fd5b7f4e487b7100000000000000000000000000000000000000000000000000000000600052604160045260246000fd5b61284e82612650565b810181811067ffffffffffffffff8211171561286d5761286c612816565b5b80604052505050565b600061288061253b565b905061288c8282612845565b919050565b600067ffffffffffffffff8211156128ac576128ab612816565b5b602082029050602081019050919050565b600080fd5b60006128d56128d084612891565b612876565b905080838252602082019050602084028301858111156128f8576128f76128bd565b5b835b81811015612921578061290d88826126dd565b8452602084019350506020810190506128fa565b5050509392505050565b600082601f8301126129405761293f612811565b5b81356129508482602086016128c2565b91505092915050565b600080604083850312156129705761296f612545565b5b600061297e858286016126dd565b925050602083013567ffffffffffffffff81111561299f5761299e61254a565b5b6129ab8582860161292b565b9150509250929050565b6000806000606084860312156129ce576129cd612545565b5b60006129dc86828701612792565b93505060206129ed86828701612792565b92505060406129fe868287016126dd565b9150509250925092565b600060039050919050565b600081905092915050565b6000819050919050565b612a31816126bc565b82525050565b6000612a438383612a28565b60208301905092915050565b6000602082019050919050565b612a6581612a08565b612a6f8184612a13565b9250612a7a82612a1e565b8060005b83811015612aab578151612a928782612a37565b9650612a9d83612a4f565b925050600181019050612a7e565b505050505050565b6000606082019050612ac86000830184612a5c565b92915050565b600060208284031215612ae457612ae3612545565b5b6000612af284828501612792565b91505092915050565b612b04816125d4565b8114612b0f57600080fd5b50565b600081359050612b2181612afb565b92915050565b60008060408385031215612b3e57612b3d612545565b5b6000612b4c85828601612792565b9250506020612b5d85828601612b12565b9150509250929050565b7f4e487b7100000000000000000000000000000000000000000000000000000000600052602160045260246000fd5b60038110612ba757612ba6612b67565b5b50565b6000819050612bb882612b96565b919050565b6000612bc882612baa565b9050919050565b612bd881612bbd565b82525050565b6000602082019050612bf36000830184612bcf565b92915050565b600080fd5b600067ffffffffffffffff821115612c1957612c18612816565b5b612c2282612650565b9050602081019050919050565b82818337600083830152505050565b6000612c51612c4c84612bfe565b612876565b905082815260208101848484011115612c6d57612c6c612bf9565b5b612c78848285612c2f565b509392505050565b600082601f830112612c9557612c94612811565b5b8135612ca5848260208601612c3e565b91505092915050565b60008060008060808587031215612cc857612cc7612545565b5b6000612cd687828801612792565b9450506020612ce787828801612792565b9350506040612cf8878288016126dd565b925050606085013567ffffffffffffffff811115612d1957612d1861254a565b5b612d2587828801612c80565b91505092959194509250565b60008060408385031215612d4857612d47612545565b5b6000612d5685828601612792565b9250506020612d6785828601612792565b9150509250929050565b7f4e487b7100000000000000000000000000000000000000000000000000000000600052602260045260246000fd5b60006002820490506001821680612db857607f821691505b602082108103612dcb57612dca612d71565b5b50919050565b7f4552433732313a20617070726f76616c20746f2063757272656e74206f776e6560008201527f7200000000000000000000000000000000000000000000000000000000000000602082015250565b6000612e2d602183612615565b9150612e3882612dd1565b604082019050919050565b60006020820190508181036000830152612e5c81612e20565b9050919050565b7f4552433732313a20617070726f76652063616c6c6572206973206e6f7420746f60008201527f6b656e206f776e6572206f7220617070726f76656420666f7220616c6c000000602082015250565b6000612ebf603d83612615565b9150612eca82612e63565b604082019050919050565b60006020820190508181036000830152612eee81612eb2565b9050919050565b6000604082019050612f0a6000830185612751565b612f176020830184612751565b9392505050565b7f4552433732313a2063616c6c6572206973206e6f7420746f6b656e206f776e6560008201527f72206f7220617070726f76656400000000000000000000000000000000000000602082015250565b6000612f7a602d83612615565b9150612f8582612f1e565b604082019050919050565b60006020820190508181036000830152612fa981612f6d565b9050919050565b600081905092915050565b50565b6000612fcb600083612fb0565b9150612fd682612fbb565b600082019050919050565b6000612fec82612fbe565b9150819050919050565b7f4e487b7100000000000000000000000000000000000000000000000000000000600052603260045260246000fd5b7f4552433732313a20696e76616c696420746f6b656e2049440000000000000000600082015250565b600061305b601883612615565b915061306682613025565b602082019050919050565b6000602082019050818103600083015261308a8161304e565b9050919050565b7f4552433732313a2061646472657373207a65726f206973206e6f74206120766160008201527f6c6964206f776e65720000000000000000000000000000000000000000000000602082015250565b60006130ed602983612615565b91506130f882613091565b604082019050919050565b6000602082019050818103600083015261311c816130e0565b9050919050565b7f4e487b7100000000000000000000000000000000000000000000000000000000600052601160045260246000fd5b600061315d826126bc565b9150613168836126bc565b92508282019050808211156131805761317f613123565b5b92915050565b6000613191826126bc565b91507fffffffffffffffffffffffffffffffffffffffffffffffffffffffffffffffff82036131c3576131c2613123565b5b600182019050919050565b6000819050919050565b6131e1816131ce565b82525050565b600067ffffffffffffffff82169050919050565b613204816131e7565b82525050565b600061ffff82169050919050565b6132218161320a565b82525050565b600063ffffffff82169050919050565b61324081613227565b82525050565b600060a08201905061325b60008301886131d8565b61326860208301876131fb565b6132756040830186613218565b6132826060830185613237565b61328f6080830184613237565b9695505050505050565b6000815190506132a8816126c6565b92915050565b6000602082840312156132c4576132c3612545565b5b60006132d284828501613299565b91505092915050565b600081905092915050565b60006132f18261260a565b6132fb81856132db565b935061330b818560208601612626565b80840191505092915050565b600061332382856132e6565b915061332f82846132e6565b91508190509392505050565b7f4f776e61626c653a206e6577206f776e657220697320746865207a65726f206160008201527f6464726573730000000000000000000000000000000000000000000000000000602082015250565b6000613397602683612615565b91506133a28261333b565b604082019050919050565b600060208201905081810360008301526133c68161338a565b9050919050565b7f4e487b7100000000000000000000000000000000000000000000000000000000600052601260045260246000fd5b6000613407826126bc565b9150613412836126bc565b925082613422576134216133cd565b5b828206905092915050565b60006040820190506134426000830185612bcf565b61344f6020830184612751565b9392505050565b7f4552433732313a207472616e736665722066726f6d20696e636f72726563742060008201527f6f776e6572000000000000000000000000000000000000000000000000000000602082015250565b60006134b2602583612615565b91506134bd82613456565b604082019050919050565b600060208201905081810360008301526134e1816134a5565b9050919050565b7f4552433732313a207472616e7366657220746f20746865207a65726f2061646460008201527f7265737300000000000000000000000000000000000000000000000000000000602082015250565b6000613544602483612615565b915061354f826134e8565b604082019050919050565b6000602082019050818103600083015261357381613537565b9050919050565b7f4f776e61626c653a2063616c6c6572206973206e6f7420746865206f776e6572600082015250565b60006135b0602083612615565b91506135bb8261357a565b602082019050919050565b600060208201905081810360008301526135df816135a3565b9050919050565b7f4552433732313a20617070726f766520746f2063616c6c657200000000000000600082015250565b600061361c601983612615565b9150613627826135e6565b602082019050919050565b6000602082019050818103600083015261364b8161360f565b9050919050565b7f4552433732313a207472616e7366657220746f206e6f6e20455243373231526560008201527f63656976657220696d706c656d656e7465720000000000000000000000000000602082015250565b60006136ae603283612615565b91506136b982613652565b604082019050919050565b600060208201905081810360008301526136dd816136a1565b9050919050565b7f45524337323155524953746f726167653a2055524920736574206f66206e6f6e60008201527f6578697374656e7420746f6b656e000000000000000000000000000000000000602082015250565b6000613740602e83612615565b915061374b826136e4565b604082019050919050565b6000602082019050818103600083015261376f81613733565b9050919050565b60008190508160005260206000209050919050565b60006020601f8301049050919050565b600082821b905092915050565b6000600883026137d87fffffffffffffffffffffffffffffffffffffffffffffffffffffffffffffffff8261379b565b6137e2868361379b565b95508019841693508086168417925050509392505050565b6000819050919050565b600061381f61381a613815846126bc565b6137fa565b6126bc565b9050919050565b6000819050919050565b61383983613804565b61384d61384582613826565b8484546137a8565b825550505050565b600090565b613862613855565b61386d818484613830565b505050565b5b818110156138915761388660008261385a565b600181019050613873565b5050565b601f8211156138d6576138a781613776565b6138b08461378b565b810160208510156138bf578190505b6138d36138cb8561378b565b830182613872565b50505b505050565b600082821c905092915050565b60006138f9600019846008026138db565b1980831691505092915050565b600061391283836138e8565b9150826002028217905092915050565b61392b8261260a565b67ffffffffffffffff81111561394457613943612816565b5b61394e8254612da0565b613959828285613895565b600060209050601f83116001811461398c576000841561397a578287015190505b6139848582613906565b8655506139ec565b601f19841661399a86613776565b60005b828110156139c25784890151825560018201915060208501945060208101905061399d565b868310156139df57848901516139db601f8916826138e8565b8355505b6001600288020188555050505b505050505050565b600081519050919050565b600082825260208201905092915050565b6000613a1b826139f4565b613a2581856139ff565b9350613a35818560208601612626565b613a3e81612650565b840191505092915050565b6000608082019050613a5e6000830187612751565b613a6b6020830186612751565b613a7860408301856127e7565b8181036060830152613a8a8184613a10565b905095945050505050565b600081519050613aa48161257b565b92915050565b600060208284031215613ac057613abf612545565b5b6000613ace84828501613a95565b91505092915050565b7f4552433732313a206d696e7420746f20746865207a65726f2061646472657373600082015250565b6000613b0d602083612615565b9150613b1882613ad7565b602082019050919050565b60006020820190508181036000830152613b3c81613b00565b9050919050565b7f4552433732313a20746f6b656e20616c7265616479206d696e74656400000000600082015250565b6000613b79601c83612615565b9150613b8482613b43565b602082019050919050565b60006020820190508181036000830152613ba881613b6c565b905091905056fea26469706673582212203162c41e8634ee6acff6f3dd5b8ad673ee039a43aab5998c46a683c9b981dff164736f6c63430008130033",
  "devdoc": {
    "events": {
      "Approval(address,address,uint256)": {
        "details": "Emitted when `owner` enables `approved` to manage the `tokenId` token."
      },
      "ApprovalForAll(address,address,bool)": {
        "details": "Emitted when `owner` enables or disables (`approved`) `operator` to manage all of its assets."
      },
      "BatchMetadataUpdate(uint256,uint256)": {
        "details": "This event emits when the metadata of a range of tokens is changed. So that the third-party platforms such as NFT market could timely update the images and related attributes of the NFTs."
      },
      "MetadataUpdate(uint256)": {
        "details": "This event emits when the metadata of a token is changed. So that the third-party platforms such as NFT market could timely update the images and related attributes of the NFT."
      },
      "Transfer(address,address,uint256)": {
        "details": "Emitted when `tokenId` token is transferred from `from` to `to`."
      }
    },
    "kind": "dev",
    "methods": {
      "approve(address,uint256)": {
        "details": "See {IERC721-approve}."
      },
      "balanceOf(address)": {
        "details": "See {IERC721-balanceOf}."
      },
      "getApproved(uint256)": {
        "details": "See {IERC721-getApproved}."
      },
      "isApprovedForAll(address,address)": {
        "details": "See {IERC721-isApprovedForAll}."
      },
      "name()": {
        "details": "See {IERC721Metadata-name}."
      },
      "owner()": {
        "details": "Returns the address of the current owner."
      },
      "ownerOf(uint256)": {
        "details": "See {IERC721-ownerOf}."
      },
      "renounceOwnership()": {
        "details": "Leaves the contract without owner. It will not be possible to call `onlyOwner` functions. Can only be called by the current owner. NOTE: Renouncing ownership will leave the contract without an owner, thereby disabling any functionality that is only available to the owner."
      },
      "safeTransferFrom(address,address,uint256)": {
        "details": "See {IERC721-safeTransferFrom}."
      },
      "safeTransferFrom(address,address,uint256,bytes)": {
        "details": "See {IERC721-safeTransferFrom}."
      },
      "setApprovalForAll(address,bool)": {
        "details": "See {IERC721-setApprovalForAll}."
      },
      "supportsInterface(bytes4)": {
        "details": "See {IERC165-supportsInterface}"
      },
      "symbol()": {
        "details": "See {IERC721Metadata-symbol}."
      },
      "tokenURI(uint256)": {
        "details": "See {IERC721Metadata-tokenURI}."
      },
      "transferFrom(address,address,uint256)": {
        "details": "See {IERC721-transferFrom}."
      },
      "transferOwnership(address)": {
        "details": "Transfers ownership of the contract to a new account (`newOwner`). Can only be called by the current owner."
      }
    },
    "version": 1
  },
  "userdoc": {
    "kind": "user",
    "methods": {},
    "version": 1
  },
  "storageLayout": {
    "storage": [
      {
        "astId": 320,
        "contract": "contracts/RandomIpfsNft.sol:RandomIpfsNft",
        "label": "_name",
        "offset": 0,
        "slot": "0",
        "type": "t_string_storage"
      },
      {
        "astId": 322,
        "contract": "contracts/RandomIpfsNft.sol:RandomIpfsNft",
        "label": "_symbol",
        "offset": 0,
        "slot": "1",
        "type": "t_string_storage"
      },
      {
        "astId": 326,
        "contract": "contracts/RandomIpfsNft.sol:RandomIpfsNft",
        "label": "_owners",
        "offset": 0,
        "slot": "2",
        "type": "t_mapping(t_uint256,t_address)"
      },
      {
        "astId": 330,
        "contract": "contracts/RandomIpfsNft.sol:RandomIpfsNft",
        "label": "_balances",
        "offset": 0,
        "slot": "3",
        "type": "t_mapping(t_address,t_uint256)"
      },
      {
        "astId": 334,
        "contract": "contracts/RandomIpfsNft.sol:RandomIpfsNft",
        "label": "_tokenApprovals",
        "offset": 0,
        "slot": "4",
        "type": "t_mapping(t_uint256,t_address)"
      },
      {
        "astId": 340,
        "contract": "contracts/RandomIpfsNft.sol:RandomIpfsNft",
        "label": "_operatorApprovals",
        "offset": 0,
        "slot": "5",
        "type": "t_mapping(t_address,t_mapping(t_address,t_bool))"
      },
      {
        "astId": 1371,
        "contract": "contracts/RandomIpfsNft.sol:RandomIpfsNft",
        "label": "_tokenURIs",
        "offset": 0,
        "slot": "6",
        "type": "t_mapping(t_uint256,t_string_storage)"
      },
      {
        "astId": 161,
        "contract": "contracts/RandomIpfsNft.sol:RandomIpfsNft",
        "label": "_owner",
        "offset": 0,
        "slot": "7",
        "type": "t_address"
      },
      {
        "astId": 3171,
        "contract": "contracts/RandomIpfsNft.sol:RandomIpfsNft",
        "label": "s_requestIdToSender",
        "offset": 0,
        "slot": "8",
        "type": "t_mapping(t_uint256,t_address)"
      },
      {
        "astId": 3173,
        "contract": "contracts/RandomIpfsNft.sol:RandomIpfsNft",
        "label": "s_tokenCounter",
        "offset": 0,
        "slot": "9",
        "type": "t_uint256"
      },
      {
        "astId": 3180,
        "contract": "contracts/RandomIpfsNft.sol:RandomIpfsNft",
        "label": "s_dogTokenUris",
        "offset": 0,
        "slot": "10",
        "type": "t_array(t_string_storage)3_storage"
      }
    ],
    "types": {
      "t_address": {
        "encoding": "inplace",
        "label": "address",
        "numberOfBytes": "20"
      },
      "t_array(t_string_storage)3_storage": {
        "base": "t_string_storage",
        "encoding": "inplace",
        "label": "string[3]",
        "numberOfBytes": "96"
      },
      "t_bool": {
        "encoding": "inplace",
        "label": "bool",
        "numberOfBytes": "1"
      },
      "t_mapping(t_address,t_bool)": {
        "encoding": "mapping",
        "key": "t_address",
        "label": "mapping(address => bool)",
        "numberOfBytes": "32",
        "value": "t_bool"
      },
      "t_mapping(t_address,t_mapping(t_address,t_bool))": {
        "encoding": "mapping",
        "key": "t_address",
        "label": "mapping(address => mapping(address => bool))",
        "numberOfBytes": "32",
        "value": "t_mapping(t_address,t_bool)"
      },
      "t_mapping(t_address,t_uint256)": {
        "encoding": "mapping",
        "key": "t_address",
        "label": "mapping(address => uint256)",
        "numberOfBytes": "32",
        "value": "t_uint256"
      },
      "t_mapping(t_uint256,t_address)": {
        "encoding": "mapping",
        "key": "t_uint256",
        "label": "mapping(uint256 => address)",
        "numberOfBytes": "32",
        "value": "t_address"
      },
      "t_mapping(t_uint256,t_string_storage)": {
        "encoding": "mapping",
        "key": "t_uint256",
        "label": "mapping(uint256 => string)",
        "numberOfBytes": "32",
        "value": "t_string_storage"
      },
      "t_string_storage": {
        "encoding": "bytes",
        "label": "string",
        "numberOfBytes": "32"
      },
      "t_uint256": {
        "encoding": "inplace",
        "label": "uint256",
        "numberOfBytes": "32"
      }
    }
  }
}